{
  "address": "0xA45B262AC01240298B4809f5f19F71e8567dAea9",
  "abi": [
    {
      "inputs": [
        {
          "internalType": "address",
          "name": "_collateralToken",
          "type": "address"
        },
        {
          "internalType": "address",
          "name": "_factory",
          "type": "address"
        },
        {
          "internalType": "string",
          "name": "_name",
          "type": "string"
        },
        {
          "internalType": "string",
          "name": "_symbol",
          "type": "string"
        },
        {
          "internalType": "uint8",
          "name": "_decimals",
          "type": "uint8"
        }
      ],
      "stateMutability": "nonpayable",
      "type": "constructor"
    },
    {
      "anonymous": false,
      "inputs": [
        {
          "indexed": true,
          "internalType": "address",
          "name": "user",
          "type": "address"
        },
        {
          "indexed": false,
          "internalType": "uint256",
          "name": "amount",
          "type": "uint256"
        }
      ],
      "name": "CollateralDeposited",
      "type": "event"
    },
    {
      "anonymous": false,
      "inputs": [
        {
          "indexed": true,
          "internalType": "address",
          "name": "user",
          "type": "address"
        },
        {
          "indexed": false,
          "internalType": "uint256",
          "name": "amount",
          "type": "uint256"
        }
      ],
      "name": "CollateralWithdrawn",
      "type": "event"
    },
    {
      "anonymous": false,
      "inputs": [
        {
          "indexed": true,
          "internalType": "address",
          "name": "user",
          "type": "address"
        },
        {
          "indexed": false,
          "internalType": "uint256",
          "name": "amount",
          "type": "uint256"
        }
      ],
      "name": "TokensBorrowed",
      "type": "event"
    },
    {
      "anonymous": false,
      "inputs": [
        {
          "indexed": true,
          "internalType": "address",
          "name": "user",
          "type": "address"
        },
        {
          "indexed": false,
          "internalType": "uint256",
          "name": "amount",
          "type": "uint256"
        }
      ],
      "name": "TokensRepaid",
      "type": "event"
    },
    {
      "inputs": [
        {
          "internalType": "uint256",
          "name": "outputTokenAmount",
          "type": "uint256"
        }
      ],
      "name": "borrow",
      "outputs": [],
      "stateMutability": "nonpayable",
      "type": "function"
    },
    {
      "inputs": [
        {
          "internalType": "address",
          "name": "user",
          "type": "address"
        }
      ],
      "name": "checkCollateralAllowance",
      "outputs": [
        {
          "internalType": "uint256",
          "name": "",
          "type": "uint256"
        }
      ],
      "stateMutability": "view",
      "type": "function"
    },
    {
      "inputs": [
        {
          "internalType": "address",
          "name": "user",
          "type": "address"
        }
      ],
      "name": "checkOutputTokenAllowance",
      "outputs": [
        {
          "internalType": "uint256",
          "name": "",
          "type": "uint256"
        }
      ],
      "stateMutability": "view",
      "type": "function"
    },
    {
      "inputs": [
        {
          "internalType": "address",
          "name": "",
          "type": "address"
        }
      ],
      "name": "collateralBalance",
      "outputs": [
        {
          "internalType": "uint256",
          "name": "",
          "type": "uint256"
        }
      ],
      "stateMutability": "view",
      "type": "function"
    },
    {
      "inputs": [],
      "name": "collateralFactor",
      "outputs": [
        {
          "internalType": "uint256",
          "name": "",
          "type": "uint256"
        }
      ],
      "stateMutability": "view",
      "type": "function"
    },
    {
      "inputs": [],
      "name": "collateralToken",
      "outputs": [
        {
          "internalType": "contract IERC20",
          "name": "",
          "type": "address"
        }
      ],
      "stateMutability": "view",
      "type": "function"
    },
    {
      "inputs": [
        {
          "internalType": "address",
          "name": "",
          "type": "address"
        }
      ],
      "name": "debt",
      "outputs": [
        {
          "internalType": "uint256",
          "name": "",
          "type": "uint256"
        }
      ],
      "stateMutability": "view",
      "type": "function"
    },
    {
      "inputs": [
        {
          "internalType": "uint256",
          "name": "amount",
          "type": "uint256"
        }
      ],
      "name": "depositCollateral",
      "outputs": [],
      "stateMutability": "nonpayable",
      "type": "function"
    },
    {
      "inputs": [],
      "name": "outputToken",
      "outputs": [
        {
          "internalType": "contract IERC20ForSPL",
          "name": "",
          "type": "address"
        }
      ],
      "stateMutability": "view",
      "type": "function"
    },
    {
      "inputs": [],
      "name": "owner",
      "outputs": [
        {
          "internalType": "address",
          "name": "",
          "type": "address"
        }
      ],
      "stateMutability": "view",
      "type": "function"
    },
    {
      "inputs": [
        {
          "internalType": "uint256",
          "name": "outputTokenAmount",
          "type": "uint256"
        }
      ],
      "name": "repay",
      "outputs": [],
      "stateMutability": "nonpayable",
      "type": "function"
    },
    {
      "inputs": [
        {
          "internalType": "uint256",
          "name": "amount",
          "type": "uint256"
        }
      ],
      "name": "withdrawCollateral",
      "outputs": [],
      "stateMutability": "nonpayable",
      "type": "function"
    }
  ],
  "transactionHash": "0x8059f8887e20ae5463e7b50d33c1c9a3003074d5acdc8e40e162fc6adfeb65e2",
  "args": [
    "0x512E48836Cd42F3eB6f50CEd9ffD81E0a7F15103",
    "0xF6b17787154C418d5773Ea22Afc87A95CAA3e957",
    "Чаробни Internet Money",
    "4ap",
    6
  ],
  "numDeployments": 4,
  "solcInputHash": "8786ebb5fd8537a58512b56b573ce6a8",
  "bytecode": "0x608060405260326005553480156200001657600080fd5b5060405162000c4938038062000c498339810160408190526200003991620001ed565b600080546001600160a01b038088166001600160a01b0319928316178355600280549092163317909155604051633f392f4b60e21b81529086169063fce4bd2c9062000090908790879087903090600401620002c7565b6020604051808303816000875af1158015620000b0573d6000803e3d6000fd5b505050506040513d601f19601f82011682018060405250810190620000d6919062000315565b600180546001600160a01b0319166001600160a01b0392909216919091179055506200033a945050505050565b80516001600160a01b03811681146200011b57600080fd5b919050565b634e487b7160e01b600052604160045260246000fd5b60005b838110156200015357818101518382015260200162000139565b50506000910152565b600082601f8301126200016e57600080fd5b81516001600160401b03808211156200018b576200018b62000120565b604051601f8301601f19908116603f01168101908282118183101715620001b657620001b662000120565b81604052838152866020858801011115620001d057600080fd5b620001e384602083016020890162000136565b9695505050505050565b600080600080600060a086880312156200020657600080fd5b620002118662000103565b9450620002216020870162000103565b60408701519094506001600160401b03808211156200023f57600080fd5b6200024d89838a016200015c565b945060608801519150808211156200026457600080fd5b5062000273888289016200015c565b925050608086015160ff811681146200028b57600080fd5b809150509295509295909350565b60008151808452620002b381602086016020860162000136565b601f01601f19169290920160200192915050565b608081526000620002dc608083018762000299565b8281036020840152620002f0818762000299565b60ff95909516604084015250506001600160a01b039190911660609091015292915050565b6000602082840312156200032857600080fd5b620003338262000103565b9392505050565b6108ff806200034a6000396000f3fe608060405234801561001057600080fd5b50600436106100b45760003560e01c8063a1bf284011610071578063a1bf284014610165578063b2016bd414610185578063bad4a01f14610198578063c1d8d1d9146101ab578063c5ebeaec146101be578063df011c41146101d157600080fd5b806327b35a4e146100b9578063371fd8e6146100df5780633746a100146100f45780636112fe2e146101075780638da5cb5b1461011a5780639b6c56ec14610145575b600080fd5b6100cc6100c73660046107d0565b6101da565b6040519081526020015b60405180910390f35b6100f26100ed366004610800565b610256565b005b6100cc6101023660046107d0565b610393565b6100f2610115366004610800565b6103cc565b60025461012d906001600160a01b031681565b6040516001600160a01b0390911681526020016100d6565b6100cc6101533660046107d0565b60046020526000908152604090205481565b6100cc6101733660046107d0565b60036020526000908152604090205481565b60005461012d906001600160a01b031681565b6100f26101a6366004610800565b610582565b60015461012d906001600160a01b031681565b6100f26101cc366004610800565b610691565b6100cc60055481565b60008054604051636eb1769f60e11b81526001600160a01b0384811660048301523060248301529091169063dd62ed3e906044015b602060405180830381865afa15801561022c573d6000803e3d6000fd5b505050506040513d601f19601f820116820180604052508101906102509190610819565b92915050565b6000811180156102755750336000908152600460205260409020548111155b6102ba5760405162461bcd60e51b8152602060048201526011602482015270125b9d985b1a59081c995c185e5b595b9d607a1b60448201526064015b60405180910390fd5b6001546040516323b872dd60e01b8152336004820152306024820152604481018390526001600160a01b03909116906323b872dd906064016020604051808303816000875af1158015610311573d6000803e3d6000fd5b505050506040513d601f19601f820116820180604052508101906103359190610832565b50336000908152600460205260408120805483929061035590849061086a565b909155505060405181815233907f433058c7d6ec341522f1f95d6a8ad4106f1cad8fd1bf4faf6052448ed62e9b43906020015b60405180910390a250565b600154604051636eb1769f60e11b81526001600160a01b038381166004830152306024830152600092169063dd62ed3e9060440161020f565b336000908152600360205260409020548111156104235760405162461bcd60e51b8152602060048201526015602482015274139bdd08195b9bdd59da0818dbdb1b185d195c985b605a1b60448201526064016102b1565b3360009081526003602052604081205461043e90839061086a565b90506000606460055483610452919061087d565b61045c9190610894565b336000908152600460205260409020549091508110156104ae5760405162461bcd60e51b815260206004820152600d60248201526c151bdbc81b5d58da081919589d609a1b60448201526064016102b1565b33600090815260036020526040812080548592906104cd90849061086a565b909155505060005460405163a9059cbb60e01b8152336004820152602481018590526001600160a01b039091169063a9059cbb906044016020604051808303816000875af1158015610523573d6000803e3d6000fd5b505050506040513d601f19601f820116820180604052508101906105479190610832565b5060405183815233907fc30fcfbcaac9e0deffa719714eaa82396ff506a0d0d0eebe170830177288715d9060200160405180910390a2505050565b600081116105bf5760405162461bcd60e51b815260206004820152600a6024820152690616d6f756e74203d20360b41b60448201526064016102b1565b6000546040516323b872dd60e01b8152336004820152306024820152604481018390526001600160a01b03909116906323b872dd906064016020604051808303816000875af1158015610616573d6000803e3d6000fd5b505050506040513d601f19601f8201168201806040525081019061063a9190610832565b50336000908152600360205260408120805483929061065a9084906108b6565b909155505060405181815233907fd7243f6f8212d5188fd054141cf6ea89cfc0d91facb8c3afe2f88a135848014290602001610388565b6005543360009081526003602052604081205490916064916106b3919061087d565b6106bd9190610894565b90508082111561070f5760405162461bcd60e51b815260206004820152601860248201527f45786365656473206d617820626f72726f77206c696d6974000000000000000060448201526064016102b1565b336000908152600460205260408120805484929061072e9084906108b6565b90915550506001546040516340c10f1960e01b8152336004820152602481018490526001600160a01b03909116906340c10f1990604401600060405180830381600087803b15801561077f57600080fd5b505af1158015610793573d6000803e3d6000fd5b50506040518481523392507f8412c29da21aa433ef5a58b426e1a0a97689471947dd559e72c5a8953bd5e9f5915060200160405180910390a25050565b6000602082840312156107e257600080fd5b81356001600160a01b03811681146107f957600080fd5b9392505050565b60006020828403121561081257600080fd5b5035919050565b60006020828403121561082b57600080fd5b5051919050565b60006020828403121561084457600080fd5b815180151581146107f957600080fd5b634e487b7160e01b600052601160045260246000fd5b8181038181111561025057610250610854565b808202811582820484141761025057610250610854565b6000826108b157634e487b7160e01b600052601260045260246000fd5b500490565b808201808211156102505761025061085456fea26469706673582212206fe666e76c4f12e5024e93e1f30f08411fd5fc88d8e9efc249cc3fcc170c113f64736f6c63430008140033",
  "devdoc": {
    "kind": "dev",
    "methods": {},
    "version": 1
  },
  "userdoc": {
    "kind": "user",
    "methods": {},
    "version": 1
  },
  "storageLayout": {
    "storage": [
      {
        "astId": 76,
        "contract": "contracts/SimpleAbra.sol:SimpleAbra",
        "label": "collateralToken",
        "offset": 0,
        "slot": "0",
        "type": "t_contract(IERC20)45"
      },
      {
        "astId": 79,
        "contract": "contracts/SimpleAbra.sol:SimpleAbra",
        "label": "outputToken",
        "offset": 0,
        "slot": "1",
        "type": "t_contract(IERC20ForSPL)73"
      },
      {
        "astId": 81,
        "contract": "contracts/SimpleAbra.sol:SimpleAbra",
        "label": "owner",
        "offset": 0,
        "slot": "2",
        "type": "t_address"
      },
      {
        "astId": 85,
        "contract": "contracts/SimpleAbra.sol:SimpleAbra",
        "label": "collateralBalance",
        "offset": 0,
        "slot": "3",
        "type": "t_mapping(t_address,t_uint256)"
      },
      {
        "astId": 89,
        "contract": "contracts/SimpleAbra.sol:SimpleAbra",
        "label": "debt",
        "offset": 0,
        "slot": "4",
        "type": "t_mapping(t_address,t_uint256)"
      },
      {
        "astId": 92,
        "contract": "contracts/SimpleAbra.sol:SimpleAbra",
        "label": "collateralFactor",
        "offset": 0,
        "slot": "5",
        "type": "t_uint256"
      }
    ],
    "types": {
      "t_address": {
        "encoding": "inplace",
        "label": "address",
        "numberOfBytes": "20"
      },
      "t_contract(IERC20)45": {
        "encoding": "inplace",
        "label": "contract IERC20",
        "numberOfBytes": "20"
      },
      "t_contract(IERC20ForSPL)73": {
        "encoding": "inplace",
        "label": "contract IERC20ForSPL",
        "numberOfBytes": "20"
      },
      "t_mapping(t_address,t_uint256)": {
        "encoding": "mapping",
        "key": "t_address",
        "label": "mapping(address => uint256)",
        "numberOfBytes": "32",
        "value": "t_uint256"
      },
      "t_uint256": {
        "encoding": "inplace",
        "label": "uint256",
        "numberOfBytes": "32"
      }
    }
  }
}